:100000000C9490000C94B8000C94B8000C94B800B8
:100010000C94B8000C94B8000C94B8000C94B80080
:100020000C94B8000C94B8000C94B8000C94B80070
:100030000C94B8000C94B8000C94B8000C94B80060
:100040000C9417010C94B8000C94EA030C941C0453
:100050000C94B8000C94B8000C94B8000C94B80040
:100060000C94B8000C94B8000C94B8000C94B80030
:100070000C94B8000C94B8000C94B8000C94B80020
:100080000C94B8000C94B8000C94B8000C94B80010
:100090000C94B8000C94B8000C94B8000C94B80000
:1000A0000C94B8000C94B8000C94B8000C94B800F0
:1000B0000C94B8000A0D0E090003020000040508A4
:1000C000000000000000000000000000000000012F
:1000D00002040810204080010204081020010204DC
:1000E00008102040804001020408040404040404B1
:1000F00004040202020202020303030303030202D6
:10010000030505050500000000250028002B002E32
:100110000000000000240027002A002D00004C04ED
:1001200011241FBECFEFD8E0DEBFCDBF11E0A0E0AD
:10013000B1E0E0E6FBE002C005900D92AA32B10703
:10014000D9F721E0AAE2B1E001C01D92A23DB207B9
:10015000E1F710E0C0E9D0E004C02197FE010E9461
:10016000A805CF38D107C9F70E9476050C94AE05D3
:100170000C94000061E08DE00E94410226E040E026
:1001800052EC61E070E085E391E00C949203CF9231
:10019000DF92EF92FF9262E071E085E391E00E94CE
:1001A000B50460910001709101014AE050E085E3DF
:1001B00091E00E945C0561E171E085E391E00E94BD
:1001C000B50460912A0170912B014AE050E085E36B
:1001D00091E00E94630580912A0190912B01019684
:1001E00090932B0180932A0161E08DE00E947D02B3
:1001F00080910001909101010197B1F080ED97E0AD
:100200006C01990FEE08FF08C701B6010E94860134
:1002100060E08DE00E947D02C701B601FF90EF9083
:10022000DF90CF900C94860184EF91E0E9CF1F928C
:100230000F920FB60F9211242F933F938F939F939A
:10024000AF93BF938091310190913201A09133011E
:10025000B09134013091300123E0230F2D3768F144
:1002600026E8230F0296A11DB11D20933001809333
:10027000310190933201A0933301B0933401809106
:100280002C0190912D01A0912E01B0912F0101968A
:10029000A11DB11D80932C0190932D01A0932E01DF
:1002A000B0932F01BF91AF919F918F913F912F916B
:1002B0000F900FBE0F901F9018950196A11DB11DB4
:1002C000D4CF3FB7F89480912C0190912D01A0914B
:1002D0002E01B0912F0126B5A89B05C02F3F19F024
:1002E0000196A11DB11D3FBFBA2FA92F982F8827B6
:1002F000BC01CD01620F711D811D911D42E0660F91
:10030000771F881F991F4A95D1F708958F929F9262
:10031000AF92BF92CF92DF92EF92FF926B017C017E
:100320000E9461014B015C01C114D104E104F1049C
:10033000E9F00E9485050E946101681979098A091E
:100340009B09683E73408105910570F321E0C21A54
:10035000D108E108F10888EE880E83E0981EA11C00
:10036000B11CC114D104E104F10429F7FF90EF900E
:10037000DF90CF90BF90AF909F908F90089578942A
:1003800084B5836084BD85B5836085BDEEE6F0E00D
:10039000808181608083E1E8F0E082E08083808179
:1003A00081608083E0E8F0E0808181608083E1EB20
:1003B000F0E0808184608083E0EBF0E08081816008
:1003C0008083E1E9F0E0808183608083E0E9F0E010
:1003D000808181608083E1EAF0E0808183608083B6
:1003E000E0EAF0E080818160808387E880937A0092
:1003F0001092C100089582508D3008F03EC0E82F61
:10040000F0E0EB5FFD4F0C94A8053A023E021202A9
:1004100018023D023D021C02220226022C023D026D
:1004200030023602809180008F778093800008959B
:10043000809180008F7DF9CF8091B0008F7780937D
:10044000B00008958091B0008F7DF9CF8091900029
:100450008F77809390000895809190008F7DF9CFE1
:100460008091A0008F778093A00008958091A000D4
:100470008F7DF9CF84B58F7784BD089584B58F7D46
:10048000FBCFCF93DF9390E0FC01E153FF4F24912A
:1004900086519F4FFC0184918823C9F090E0880F1A
:1004A000991FFC01EF5EFE4FA591B491FC01EB5F3B
:1004B000FE4FC591D49161110DC09FB7F8948C91F6
:1004C000209582238C938881282328839FBFDF91E6
:1004D000CF910895623051F49FB7F8943C91822FE8
:1004E000809583238C93E8812E2BEFCF8FB7F894E0
:1004F000EC912E2B2C938FBFEACF1F93CF93DF93DA
:10050000282F30E0F901EC54FF4F8491F901E153B9
:10051000FF4FD491F901E651FF4FC491CC23A9F0CC
:10052000162F81110E94FB01EC2FF0E0EE0FFF1F50
:10053000EB5FFE4FA591B4918FB7F894EC91111138
:1005400008C0D095DE23DC938FBFDF91CF911F9140
:100550000895DE2BF8CFFC01918D228D892F90E03C
:10056000805C9F4F821B91098F7399270895FC012E
:10057000918D828D981731F0828DE80FF11D858D58
:1005800090E008958FEF9FEF0895FC01918D828D8B
:10059000981761F0A28DAE0FBF2FB11D5D968C91A3
:1005A000928D9F5F9F73928F90E008958FEF9FEFE2
:1005B0000895FC01538D448D252F30E0842F90E069
:1005C000821B930B541710F0CF960895019708954E
:1005D00082E494E0892B49F080E090E0892B29F0B7
:1005E0000E94420481110E94000080E090E0892B6B
:1005F00049F080E090E0892B29F00E9400008111F1
:100600000C9400000895FC01A48DA80FB92FB11D12
:10061000A35ABF4F2C91848D90E001968F73992738
:10062000848FA689B7892C93A089B1898C91837016
:1006300080648C93938D848D981306C00288F3890F
:10064000E02D80818F7D80830895CF93DF93EC012F
:10065000888D8823B9F0AA89BB89E889F9898C91AA
:1006600085FD03C0808186FD0DC00FB607FCF7CF66
:100670008C9185FFF2CF808185FFEDCFCE010E9466
:100680000303E9CFDF91CF910895EF92FF920F938B
:100690001F93CF93DF93EC0181E0888F9B8D8C8D2E
:1006A00098131AC0E889F989808185FF15C09FB722
:1006B000F894EE89FF896083E889F98980818370E5
:1006C000806480839FBF81E090E0DF91CF911F9194
:1006D0000F91FF90EF900895F62E0B8D10E00F5FB5
:1006E0001F4F0F731127E02E8C8D8E110CC00FB68B
:1006F00007FCFACFE889F989808185FFF5CFCE0123
:100700000E940303F1CFEB8DEC0FFD2FF11DE35A97
:10071000FF4FF0829FB7F8940B8FEA89FB898081A5
:100720008062CFCFCF92DF92EF92FF921F93CF9351
:10073000DF93EC016A017B01122FE889F98982E0DD
:100740008083C11481EED806E104F104A1F060E0D9
:1007500079E08DE390E0A70196010E948605215083
:100760003109410951095695479537952795211526
:1007700080E1380798F0E889F989108260E874E828
:100780008EE190E0A70196010E9486052150310973
:10079000410951095695479537952795EC85FD8573
:1007A0003083EE85FF852083188EEC89FD891083C8
:1007B000EA89FB89808188698083EA89FB89808155
:1007C0008F7D8083DF91CF911F91FF90EF90DF901D
:1007D000CF9008951F920F920FB60F9211242F936E
:1007E0008F939F93EF93FF93E0914501F091460122
:1007F0008081E0914B01F0914C0182FD1BC0908102
:1008000080914E018F5F8F7320914F01821741F0CD
:10081000E0914E01F0E0EB5CFE4F958F80934E012E
:10082000FF91EF919F918F912F910F900FBE0F909D
:100830001F9018958081F4CF1F920F920FB60F92E0
:1008400011242F933F934F935F936F937F938F93D5
:100850009F93AF93BF93EF93FF9385E391E00E9443
:100860000303FF91EF91BF91AF919F918F917F9182
:100870006F915F914F913F912F910F900FBE0F900D
:100880001F90189585E391E00E94AB0221E0892B2F
:1008900009F420E0822F0895E5E3F1E0138212824B
:1008A00088EE93E0A0E0B0E084839583A683B783CD
:1008B00088E191E09183808385EC90E0958784873F
:1008C00084EC90E09787868780EC90E0918B808B1A
:1008D00081EC90E0938B828B82EC90E0958B848B03
:1008E00086EC90E0978B868B118E128E138E148E71
:1008F0000895AF92BF92CF92DF92EF92FF920F9343
:100900001F93CF93DF936C017B018B01040F151FA5
:10091000EB015E01AE18BF08C017D10759F069910D
:10092000D601ED91FC910190F081E02DC601099571
:10093000892B79F7C501DF91CF911F910F91FF901E
:10094000EF90DF90CF90BF90AF900895FB010190A2
:100950000020E9F73197AF01461B570BDC01ED9101
:10096000FC910280F381E02D09946115710511F06D
:100970000C94A60490E080E00895DC01ED91FC91D8
:100980000190F081E02D099466E271E00C94A604D8
:100990008F929F92AF92BF92EF92FF920F931F930D
:1009A000CF93DF93CDB7DEB7A1970FB6F894DEBF34
:1009B0000FBECDBF7C01FA01CB0119A2223008F491
:1009C0002AE08E010F5D1F4F822E912CB12CA12C9D
:1009D000BF01A50194010E948605F901CA016A3090
:1009E0000CF5605DD8016E938D01232B242B252BF4
:1009F00079F790E080E0109721F0BD01C7010E94D7
:100A0000A604A1960FB6F894DEBF0FBECDBFDF914E
:100A1000CF911F910F91FF90EF90BF90AF909F905B
:100A20008F900895695CDECFCF92DF92EF92FF92B4
:100A30000F931F93CF93DF932115310581F4DC01D0
:100A4000ED91FC910190F081E02D642FDF91CF9129
:100A50001F910F91FF90EF90DF90CF9009942A3073
:100A6000310501F52AE077FF1DC06A017B01EC0129
:100A70006DE20E94BD048C0144275527BA014C1930
:100A80005D096E097F092AE0CE010E94C804800F2B
:100A9000911FDF91CF911F910F91FF90EF90DF9009
:100AA000CF900895DF91CF911F910F91FF90EF901C
:100AB000DF90CF900C94C8049A01AB01770F660BBE
:100AC000770B0C9414050F931F93CF93DF93EC01D6
:100AD0000E945C058C01CE010E94C404800F911F0E
:100AE000DF91CF911F910F91089508950E94BF014A
:100AF0000E9475050E94BA00C8EED2E00E94C700AD
:100B00002097E1F30E94E802F9CF0895A1E21A2E9E
:100B1000AA1BBB1BFD010DC0AA1FBB1FEE1FFF1FA1
:100B2000A217B307E407F50720F0A21BB30BE40BF1
:100B3000F50B661F771F881F991F1A9469F7609538
:100B40007095809590959B01AC01BD01CF010895F2
:100B5000EE0FFF1F0590F491E02D0994F894FFCF5C
:100B6000020068656C6C6F20666C61766F75722030
:100B7000003A20000000000045037904D902250353
:0A0B8000AB02C502B7020D0A000027
:00000001FF
